:1000000045C00000F8C0000051C000004FC0000013
:100010004DC000004BC0000049C0000047C00000B8
:1000200045C0000043C0000041C000003FC00000C8
:100030003DC000003BC0000039C0000037C00000D8
:10004000C1C0000033C0000031C000002FC000005C
:100050002DC000002BC0000029C0000027C00000F8
:1000600025C0000023C0000021C000001FC0000008
:100070001DC000001BC0000019C0000017C0000018
:1000800015C0000013C0000011C0000011241FBEE5
:10009000CFEFD0E1DEBFCDBF21E0A0E0B1E001C0F5
:1000A0001D92A530B207E1F702D0CCC0A9CF8FEFE7
:1000B00082B983B9109202011092010110920301DA
:1000C000109200018DE882BF84E083BF81E087BF8A
:1000D000BC98C49A889883E080936A0089B781604D
:1000E00089BF789430E05FE74EEF61E02091040132
:1000F0008091010190910201C297D0F31092020108
:10010000109201012130B9F030F0223021F123307A
:1001100009F447C0EDCF80910001882329F01092A7
:10012000000143B932E0E2CF832F809583B9330FCA
:10013000E9F631E0DBCF80910001882329F01092AD
:10014000000153B930E4D2CF832F809583B936951F
:1001500069F630E8CBCF80910001882351F01092EE
:1001600000011092030143B980910301882371F0CB
:1001700012C0832F809583B980910301811109C03A
:10018000303829F46093030130E4B0CF31E0330F0D
:10019000ADCF313021F41092030132E0A7CF369574
:1001A000A5CF80910001882329F01092000153B956
:1001B00030E49CCF832F809583B9369509F096CF94
:1001C0003FEF94CF1F920F920FB60F9211248F938F
:1001D0009F938091010190910201019690930201F9
:1001E000809301018DE882BF9F918F910F900FBE88
:1001F0000F901F9018951F920F920FB60F92112417
:100200008F9380910401813051F028F0823059F0B1
:10021000833069F00EC081E0809304010AC082E05F
:100220008093040106C083E08093040102C0109211
:10023000040181E0809300018F910F900FBE0F9019
:080240001F901895F894FFCF00
:00000001FF
